:1000000019C033C032C031C030C02FC02EC02DC087
:1000100055C12BC02AC029C028C061C026C025C038
:1000200024C023C022C021C020C01FC01EC01DC0CC
:100030001CC01BC011241FBECFEFCDBFDFE3DEBF4E
:100040001FE3A0E0BFE3E8E7F6E002C005900D92F1
:10005000A430B107D9F72FE3A4E0BFE301C01D929C
:10006000A831B207E1F708D005C3CACFE0E0F4E059
:1000700086E081838683089590E088ED84BF909325
:100080006100F4DF0CD119D0789468E978E080E25F
:1000900093E041D0882339F0C2D08093043F9093FD
:1000A000053F45D1F2CFE0E0FAE012A613A614A670
:1000B00015A686E080930604E8CF80E480930204CE
:1000C000E0E8F1E080E1828383E0828BE0E4FAE023
:1000D00084E0818381E084838583808308951F92F7
:1000E0000F920FB60F9211248F939F93EF93FF936C
:1000F000E0E4FAE08485958580930A3F90930B3F76
:1001000081E08683FF91EF919F918F910F900FBEB9
:100110000F901F9018952F923F924F925F926F927F
:100120007F928F929F92AF92BF92CF92DF92EF9287
:10013000FF920F931F93CF93DF93CDB7DEB72E9728
:10014000CDBFDEBF8D879E8769837A8340910A3F4A
:1001500050910B3F6894AA24A6F80F2EF2E4BF2E0C
:10016000F02D0F2EFFE0CF2EF02DD12CE12CF12C15
:1001700000E010E0242F352F40E050E060E070E018
:1001800080E090E0C5D1A12C0F2EFDE2BF2EF02D16
:100190000F2EF1E3CF2EF02DDD24D3940CD229873E
:1001A0003A874B875C87B62FA72FF82FE92F2D852D
:1001B0003E85190129853A85A22CB32CC12CD12C5E
:1001C00044D2A0F049815A819A0129833A83298532
:1001D0003A854B855C856B2F7A2F8F2F9E2FA980B8
:1001E000BA8033D229F020F080E003C080E001C063
:1001F00081E02E96CDBFDEBFDF91CF911F910F9191
:10020000FF90EF90DF90CF90BF90AF909F908F9036
:100210007F906F905F904F903F902F900895AF9296
:10022000BF92CF92DF92EF92FF920F931F93CF93E3
:10023000DF9380910A3F90910B3F6894AA24A6F81F
:100240000F2EF2E4BF2EF02D0F2EFFE0CF2EF02D5B
:10025000D12CE12CF12C00E010E0282F392F40E0C8
:1002600050E060E070E080E090E052D1A12C0F2ED1
:10027000FDE2BF2EF02D0F2EF1E3CF2EF02DDD2469
:10028000D39499D1822F932FDF91CF911F910F910A
:10029000FF90EF90DF90CF90BF90AF900895E0E097
:1002A000FAE083E68183808181608083828581603A
:1002B00082878FEF9FEA86A397A308951F920F92DC
:1002C0000FB60F9211242F933F934F938F939F93C9
:1002D00081E080930B0A8091043F9091053F9C013F
:1002E0002B5337402B32314050F42091143F309142
:1002F000153F2F5F3F4F2093143F3093153F855894
:100300009340893F910548F48091123F9091133FAB
:1003100001968093123F9093133F9F918F914F913D
:100320003F912F910F900FBE0F901F9018958093C3
:10033000043F9093053F8B3327E0920718F021E0AC
:100340002093093F8E3724E0920720F481E08093C8
:10035000083F21C0875495408B329140E0F41092C1
:10036000093F1092083F1092143F1092153F1092CF
:10037000123F1092133F8091173F811104C01092D9
:100380000E3F10920F3F8091163F811104C01092D2
:100390000C3F10920D3F8091093F9091073F8917C4
:1003A00041F0813031F42091173F91E092279093F2
:1003B000173F9091173F913009F043C0813019F5F4
:1003C0002091143F3091153F21323340E0F091E00D
:1003D0009093113F4091023F5091033F9A01215069
:1003E00031092093023F3093033F40932A0A5093F0
:1003F0002B0A2F3F3F4A58F12FEF3FEA2093023F4D
:100400003093033F24C09091113F911120C020915F
:100410000E3F30910F3F2C5F3F4F20930E3F3093A4
:100420000F3F20932A0A30932B0A4091023F5091AC
:10043000033F2417350758F040930E3F50930F3F6A
:1004400006C010922A0A10922B0A1092113F809334
:10045000073F8091083F9091063F891741F0813016
:1004600031F42091163F91E092279093163F90919E
:10047000163F913009F043C0813019F52091123FA9
:100480003091133F21323340E0F091E09093103FE0
:100490004091003F5091013F9A0121503109209332
:1004A000003F3093013F40932C0A50932D0A2F3F79
:1004B0003F4A58F12FEF3FEA2093003F3093013F2E
:1004C00024C09091103F911120C020910C3F309199
:1004D0000D3F2C5F3F4F20930C3F30930D3F2093F7
:1004E0002C0A30932D0A4091003F5091013F241770
:1004F000350758F040930C3F50930D3F06C01092C3
:100500002C0A10922D0A1092103F8093063F0895F6
:10051000DF93CF931F930F939A9DF02D219FF00DA2
:100520008B9DF00D8A9DE02DF10D039FF00D029F34
:10053000E00DF11D4E9DE00DF11D5E9DF00D4F9DF6
:10054000F00D7F936F93BF92AF925F934F93D5015E
:1005500085D08B01AC01D70181D0EB01E80FF91FE9
:10056000D6011FD02F913F91D60178D0C60FD71F4B
:10057000E81FF91FAF91BF9114D02F913F916ED01A
:10058000C60FD71FE81FF91FD60168D0E60FF71F67
:100590009801BE01CF0111240F911F91CF91DF91DE
:1005A00008955CD0460F571FC81FD91F08F4319615
:1005B0000895689401C0E8948F929F92CF93DF933F
:1005C00005D0DF91CF919F908F9008958824992432
:1005D000F401E401B0E41B2ED4019D158E049F04A8
:1005E000E007F10738F4FC014B01CA01B901AD0184
:1005F0009E011694220F331F441F551F661F771F3D
:10060000881F991F881C991CEE1FFF1FCC1FDD1F20
:10061000AA1FBB1F8A149B04EC05FD05CE05DF0550
:10062000A007B10748F08A189B08EC09FD09CE091C
:10063000DF09A00BB10B21601A94E1F62EF49401AE
:10064000AF01BE01CD01000C08952A153B054C05F4
:100650005D056E057F05800791070895A29FB00193
:10066000B39FC001A39F01D0B29F700D811D1124C3
:08067000911D0895F894FFCFDD
:04067800FFAFFFAF22
:00000001FF
